{
  "_format": "hh-sol-artifact-1",
  "contractName": "KikiToken",
  "sourceName": "contracts/KikiToken.sol",
  "abi": [
    {
      "inputs": [
        {
          "internalType": "string",
          "name": "uri",
          "type": "string"
        }
      ],
      "stateMutability": "nonpayable",
      "type": "constructor"
    },
    {
      "anonymous": false,
      "inputs": [
        {
          "indexed": true,
          "internalType": "address",
          "name": "owner",
          "type": "address"
        },
        {
          "indexed": true,
          "internalType": "address",
          "name": "approved",
          "type": "address"
        },
        {
          "indexed": true,
          "internalType": "uint256",
          "name": "tokenId",
          "type": "uint256"
        }
      ],
      "name": "Approval",
      "type": "event"
    },
    {
      "anonymous": false,
      "inputs": [
        {
          "indexed": true,
          "internalType": "address",
          "name": "owner",
          "type": "address"
        },
        {
          "indexed": true,
          "internalType": "address",
          "name": "operator",
          "type": "address"
        },
        {
          "indexed": false,
          "internalType": "bool",
          "name": "approved",
          "type": "bool"
        }
      ],
      "name": "ApprovalForAll",
      "type": "event"
    },
    {
      "anonymous": false,
      "inputs": [
        {
          "indexed": true,
          "internalType": "address",
          "name": "previousOwner",
          "type": "address"
        },
        {
          "indexed": true,
          "internalType": "address",
          "name": "newOwner",
          "type": "address"
        }
      ],
      "name": "OwnershipTransferred",
      "type": "event"
    },
    {
      "anonymous": false,
      "inputs": [
        {
          "indexed": false,
          "internalType": "uint256",
          "name": "time",
          "type": "uint256"
        }
      ],
      "name": "SaleStartChanged",
      "type": "event"
    },
    {
      "anonymous": false,
      "inputs": [
        {
          "indexed": true,
          "internalType": "uint256",
          "name": "supply",
          "type": "uint256"
        }
      ],
      "name": "SupplyChanged",
      "type": "event"
    },
    {
      "anonymous": false,
      "inputs": [
        {
          "indexed": true,
          "internalType": "address",
          "name": "from",
          "type": "address"
        },
        {
          "indexed": true,
          "internalType": "address",
          "name": "to",
          "type": "address"
        },
        {
          "indexed": true,
          "internalType": "uint256",
          "name": "tokenId",
          "type": "uint256"
        }
      ],
      "name": "Transfer",
      "type": "event"
    },
    {
      "inputs": [
        {
          "internalType": "address",
          "name": "to",
          "type": "address"
        },
        {
          "internalType": "uint256",
          "name": "tokenId",
          "type": "uint256"
        }
      ],
      "name": "approve",
      "outputs": [],
      "stateMutability": "nonpayable",
      "type": "function"
    },
    {
      "inputs": [],
      "name": "availableTokenCount",
      "outputs": [
        {
          "internalType": "uint256",
          "name": "",
          "type": "uint256"
        }
      ],
      "stateMutability": "view",
      "type": "function"
    },
    {
      "inputs": [
        {
          "internalType": "address",
          "name": "owner",
          "type": "address"
        }
      ],
      "name": "balanceOf",
      "outputs": [
        {
          "internalType": "uint256",
          "name": "",
          "type": "uint256"
        }
      ],
      "stateMutability": "view",
      "type": "function"
    },
    {
      "inputs": [],
      "name": "claim",
      "outputs": [],
      "stateMutability": "payable",
      "type": "function"
    },
    {
      "inputs": [],
      "name": "contractURI",
      "outputs": [
        {
          "internalType": "string",
          "name": "",
          "type": "string"
        }
      ],
      "stateMutability": "view",
      "type": "function"
    },
    {
      "inputs": [
        {
          "internalType": "uint256",
          "name": "tokenId",
          "type": "uint256"
        }
      ],
      "name": "getApproved",
      "outputs": [
        {
          "internalType": "address",
          "name": "",
          "type": "address"
        }
      ],
      "stateMutability": "view",
      "type": "function"
    },
    {
      "inputs": [
        {
          "internalType": "address",
          "name": "owner",
          "type": "address"
        },
        {
          "internalType": "address",
          "name": "operator",
          "type": "address"
        }
      ],
      "name": "isApprovedForAll",
      "outputs": [
        {
          "internalType": "bool",
          "name": "",
          "type": "bool"
        }
      ],
      "stateMutability": "view",
      "type": "function"
    },
    {
      "inputs": [],
      "name": "name",
      "outputs": [
        {
          "internalType": "string",
          "name": "",
          "type": "string"
        }
      ],
      "stateMutability": "view",
      "type": "function"
    },
    {
      "inputs": [],
      "name": "owner",
      "outputs": [
        {
          "internalType": "address",
          "name": "",
          "type": "address"
        }
      ],
      "stateMutability": "view",
      "type": "function"
    },
    {
      "inputs": [
        {
          "internalType": "uint256",
          "name": "tokenId",
          "type": "uint256"
        }
      ],
      "name": "ownerOf",
      "outputs": [
        {
          "internalType": "address",
          "name": "",
          "type": "address"
        }
      ],
      "stateMutability": "view",
      "type": "function"
    },
    {
      "inputs": [],
      "name": "renounceOwnership",
      "outputs": [],
      "stateMutability": "nonpayable",
      "type": "function"
    },
    {
      "inputs": [
        {
          "internalType": "address",
          "name": "from",
          "type": "address"
        },
        {
          "internalType": "address",
          "name": "to",
          "type": "address"
        },
        {
          "internalType": "uint256",
          "name": "tokenId",
          "type": "uint256"
        }
      ],
      "name": "safeTransferFrom",
      "outputs": [],
      "stateMutability": "nonpayable",
      "type": "function"
    },
    {
      "inputs": [
        {
          "internalType": "address",
          "name": "from",
          "type": "address"
        },
        {
          "internalType": "address",
          "name": "to",
          "type": "address"
        },
        {
          "internalType": "uint256",
          "name": "tokenId",
          "type": "uint256"
        },
        {
          "internalType": "bytes",
          "name": "_data",
          "type": "bytes"
        }
      ],
      "name": "safeTransferFrom",
      "outputs": [],
      "stateMutability": "nonpayable",
      "type": "function"
    },
    {
      "inputs": [],
      "name": "saleStart",
      "outputs": [
        {
          "internalType": "uint256",
          "name": "",
          "type": "uint256"
        }
      ],
      "stateMutability": "view",
      "type": "function"
    },
    {
      "inputs": [],
      "name": "saleStarted",
      "outputs": [
        {
          "internalType": "bool",
          "name": "",
          "type": "bool"
        }
      ],
      "stateMutability": "view",
      "type": "function"
    },
    {
      "inputs": [
        {
          "internalType": "address",
          "name": "operator",
          "type": "address"
        },
        {
          "internalType": "bool",
          "name": "approved",
          "type": "bool"
        }
      ],
      "name": "setApprovalForAll",
      "outputs": [],
      "stateMutability": "nonpayable",
      "type": "function"
    },
    {
      "inputs": [
        {
          "internalType": "string",
          "name": "uri",
          "type": "string"
        }
      ],
      "name": "setContractURI",
      "outputs": [],
      "stateMutability": "nonpayable",
      "type": "function"
    },
    {
      "inputs": [
        {
          "internalType": "uint256",
          "name": "time",
          "type": "uint256"
        }
      ],
      "name": "setSaleStart",
      "outputs": [],
      "stateMutability": "nonpayable",
      "type": "function"
    },
    {
      "inputs": [
        {
          "internalType": "bytes4",
          "name": "interfaceId",
          "type": "bytes4"
        }
      ],
      "name": "supportsInterface",
      "outputs": [
        {
          "internalType": "bool",
          "name": "",
          "type": "bool"
        }
      ],
      "stateMutability": "view",
      "type": "function"
    },
    {
      "inputs": [],
      "name": "symbol",
      "outputs": [
        {
          "internalType": "string",
          "name": "",
          "type": "string"
        }
      ],
      "stateMutability": "view",
      "type": "function"
    },
    {
      "inputs": [],
      "name": "tokenCount",
      "outputs": [
        {
          "internalType": "uint256",
          "name": "",
          "type": "uint256"
        }
      ],
      "stateMutability": "view",
      "type": "function"
    },
    {
      "inputs": [
        {
          "internalType": "uint256",
          "name": "tokenId",
          "type": "uint256"
        }
      ],
      "name": "tokenURI",
      "outputs": [
        {
          "internalType": "string",
          "name": "",
          "type": "string"
        }
      ],
      "stateMutability": "view",
      "type": "function"
    },
    {
      "inputs": [],
      "name": "totalSupply",
      "outputs": [
        {
          "internalType": "uint256",
          "name": "",
          "type": "uint256"
        }
      ],
      "stateMutability": "view",
      "type": "function"
    },
    {
      "inputs": [
        {
          "internalType": "address",
          "name": "from",
          "type": "address"
        },
        {
          "internalType": "address",
          "name": "to",
          "type": "address"
        },
        {
          "internalType": "uint256",
          "name": "tokenId",
          "type": "uint256"
        }
      ],
      "name": "transferFrom",
      "outputs": [],
      "stateMutability": "nonpayable",
      "type": "function"
    },
    {
      "inputs": [
        {
          "internalType": "address",
          "name": "newOwner",
          "type": "address"
        }
      ],
      "name": "transferOwnership",
      "outputs": [],
      "stateMutability": "nonpayable",
      "type": "function"
    },
    {
      "inputs": [],
      "name": "withdraw",
      "outputs": [],
      "stateMutability": "nonpayable",
      "type": "function"
    }
  ],
  "bytecode": "0x60806040523480156200001157600080fd5b5060405162003d7838038062003d78833981810160405281019062000037919062000342565b636774777081600a60018160026040518060400160405280600981526020017f4b696b69546f6b656e00000000000000000000000000000000000000000000008152506040518060400160405280600481526020017f4b494b49000000000000000000000000000000000000000000000000000000008152508160009080519060200190620000c892919062000214565b508060019080519060200190620000e192919062000214565b5050508060068190555050806008819055505080600a8190555050506200011d620001116200014660201b60201c565b6200014e60201b60201c565b80600c90805190602001906200013592919062000214565b505080600d81905550505062000517565b600033905090565b6000600b60009054906101000a900473ffffffffffffffffffffffffffffffffffffffff16905081600b60006101000a81548173ffffffffffffffffffffffffffffffffffffffff021916908373ffffffffffffffffffffffffffffffffffffffff1602179055508173ffffffffffffffffffffffffffffffffffffffff168173ffffffffffffffffffffffffffffffffffffffff167f8be0079c531659141344cd1fd0a4f28419497f9722a3daafe3b4186f6b6457e060405160405180910390a35050565b828054620002229062000428565b90600052602060002090601f01602090048101928262000246576000855562000292565b82601f106200026157805160ff191683800117855562000292565b8280016001018555821562000292579182015b828111156200029157825182559160200191906001019062000274565b5b509050620002a19190620002a5565b5090565b5b80821115620002c0576000816000905550600101620002a6565b5090565b6000620002db620002d584620003bc565b62000393565b905082815260208101848484011115620002fa57620002f9620004f7565b5b62000307848285620003f2565b509392505050565b600082601f830112620003275762000326620004f2565b5b815162000339848260208601620002c4565b91505092915050565b6000602082840312156200035b576200035a62000501565b5b600082015167ffffffffffffffff8111156200037c576200037b620004fc565b5b6200038a848285016200030f565b91505092915050565b60006200039f620003b2565b9050620003ad82826200045e565b919050565b6000604051905090565b600067ffffffffffffffff821115620003da57620003d9620004c3565b5b620003e58262000506565b9050602081019050919050565b60005b8381101562000412578082015181840152602081019050620003f5565b8381111562000422576000848401525b50505050565b600060028204905060018216806200044157607f821691505b6020821081141562000458576200045762000494565b5b50919050565b620004698262000506565b810181811067ffffffffffffffff821117156200048b576200048a620004c3565b5b80604052505050565b7f4e487b7100000000000000000000000000000000000000000000000000000000600052602260045260246000fd5b7f4e487b7100000000000000000000000000000000000000000000000000000000600052604160045260246000fd5b600080fd5b600080fd5b600080fd5b600080fd5b6000601f19601f8301169050919050565b61385180620005276000396000f3fe6080604052600436106101815760003560e01c8063715018a6116100d1578063ab0bcc411161008a578063e14ca35311610064578063e14ca3531461053b578063e8a3d48514610566578063e985e9c514610591578063f2fde38b146105ce57610181565b8063ab0bcc41146104aa578063b88d4fde146104d5578063c87b56dd146104fe57610181565b8063715018a6146103c05780638da5cb5b146103d7578063938e3d7b1461040257806395d89b411461042b5780639f181b5e14610456578063a22cb4651461048157610181565b80632f181f541161013e5780634e71d92d116101185780634e71d92d146103115780635c474f9e1461031b5780636352211e1461034657806370a082311461038357610181565b80632f181f54146102a85780633ccfd60b146102d157806342842e0e146102e857610181565b806301ffc9a71461018657806306fdde03146101c3578063081812fc146101ee578063095ea7b31461022b57806318160ddd1461025457806323b872dd1461027f575b600080fd5b34801561019257600080fd5b506101ad60048036038101906101a891906125f5565b6105f7565b6040516101ba9190612b87565b60405180910390f35b3480156101cf57600080fd5b506101d86106d9565b6040516101e59190612ba2565b60405180910390f35b3480156101fa57600080fd5b5061021560048036038101906102109190612698565b61076b565b6040516102229190612b20565b60405180910390f35b34801561023757600080fd5b50610252600480360381019061024d9190612588565b6107f0565b005b34801561026057600080fd5b50610269610908565b6040516102769190612e24565b60405180910390f35b34801561028b57600080fd5b506102a660048036038101906102a19190612472565b610912565b005b3480156102b457600080fd5b506102cf60048036038101906102ca9190612698565b610972565b005b3480156102dd57600080fd5b506102e6610a77565b005b3480156102f457600080fd5b5061030f600480360381019061030a9190612472565b610b43565b005b610319610b63565b005b34801561032757600080fd5b50610330610c56565b60405161033d9190612b87565b60405180910390f35b34801561035257600080fd5b5061036d60048036038101906103689190612698565b610c63565b60405161037a9190612b20565b60405180910390f35b34801561038f57600080fd5b506103aa60048036038101906103a59190612405565b610d15565b6040516103b79190612e24565b60405180910390f35b3480156103cc57600080fd5b506103d5610dcd565b005b3480156103e357600080fd5b506103ec610e55565b6040516103f99190612b20565b60405180910390f35b34801561040e57600080fd5b506104296004803603810190610424919061264f565b610e7f565b005b34801561043757600080fd5b50610440610f15565b60405161044d9190612ba2565b60405180910390f35b34801561046257600080fd5b5061046b610fa7565b6040516104789190612e24565b60405180910390f35b34801561048d57600080fd5b506104a860048036038101906104a39190612548565b610fb8565b005b3480156104b657600080fd5b506104bf610fce565b6040516104cc9190612e24565b60405180910390f35b3480156104e157600080fd5b506104fc60048036038101906104f791906124c5565b610fd8565b005b34801561050a57600080fd5b5061052560048036038101906105209190612698565b61103a565b6040516105329190612ba2565b60405180910390f35b34801561054757600080fd5b506105506110e1565b60405161055d9190612e24565b60405180910390f35b34801561057257600080fd5b5061057b611102565b6040516105889190612ba2565b60405180910390f35b34801561059d57600080fd5b506105b860048036038101906105b39190612432565b611194565b6040516105c59190612b87565b60405180910390f35b3480156105da57600080fd5b506105f560048036038101906105f09190612405565b611228565b005b60007f80ac58cd000000000000000000000000000000000000000000000000000000007bffffffffffffffffffffffffffffffffffffffffffffffffffffffff1916827bffffffffffffffffffffffffffffffffffffffffffffffffffffffff191614806106c257507f5b5e139f000000000000000000000000000000000000000000000000000000007bffffffffffffffffffffffffffffffffffffffffffffffffffffffff1916827bffffffffffffffffffffffffffffffffffffffffffffffffffffffff1916145b806106d257506106d182611320565b5b9050919050565b6060600080546106e89061308c565b80601f01602080910402602001604051908101604052809291908181526020018280546107149061308c565b80156107615780601f1061073657610100808354040283529160200191610761565b820191906000526020600020905b81548152906001019060200180831161074457829003601f168201915b5050505050905090565b60006107768261138a565b6107b5576040517f08c379a00000000000000000000000000000000000000000000000000000000081526004016107ac90612d44565b60405180910390fd5b6004600083815260200190815260200160002060009054906101000a900473ffffffffffffffffffffffffffffffffffffffff169050919050565b60006107fb82610c63565b90508073ffffffffffffffffffffffffffffffffffffffff168373ffffffffffffffffffffffffffffffffffffffff16141561086c576040517f08c379a000000000000000000000000000000000000000000000000000000000815260040161086390612de4565b60405180910390fd5b8073ffffffffffffffffffffffffffffffffffffffff1661088b6113f6565b73ffffffffffffffffffffffffffffffffffffffff1614806108ba57506108b9816108b46113f6565b611194565b5b6108f9576040517f08c379a00000000000000000000000000000000000000000000000000000000081526004016108f090612cc4565b60405180910390fd5b61090383836113fe565b505050565b6000600854905090565b61092361091d6113f6565b826114b7565b610962576040517f08c379a000000000000000000000000000000000000000000000000000000000815260040161095990612e04565b60405180910390fd5b61096d838383611595565b505050565b61097a6113f6565b73ffffffffffffffffffffffffffffffffffffffff16610998610e55565b73ffffffffffffffffffffffffffffffffffffffff16146109ee576040517f08c379a00000000000000000000000000000000000000000000000000000000081526004016109e590612d64565b60405180910390fd5b6109f6610c56565b15610a36576040517f08c379a0000000000000000000000000000000000000000000000000000000008152600401610a2d90612d24565b60405180910390fd5b80600d819055507fb751cc79e5d90c9173e2971809c6658fcf527209d16860326bfe7779a9169f0b81604051610a6c9190612e24565b60405180910390a150565b610a7f6113f6565b73ffffffffffffffffffffffffffffffffffffffff16610a9d610e55565b73ffffffffffffffffffffffffffffffffffffffff1614610af3576040517f08c379a0000000000000000000000000000000000000000000000000000000008152600401610aea90612d64565b60405180910390fd5b610afb610e55565b73ffffffffffffffffffffffffffffffffffffffff166108fc479081150290604051600060405180830381858888f19350505050158015610b40573d6000803e3d6000fd5b50565b610b5e83838360405180602001604052806000815250610fd8565b505050565b6000610b6d6110e1565b11610bad576040517f08c379a0000000000000000000000000000000000000000000000000000000008152600401610ba490612c84565b60405180910390fd5b610bb5610c56565b610bf4576040517f08c379a0000000000000000000000000000000000000000000000000000000008152600401610beb90612dc4565b60405180910390fd5b662386f26fc100003414610c3d576040517f08c379a0000000000000000000000000000000000000000000000000000000008152600401610c3490612d84565b60405180910390fd5b6000610c4761168f565b9050610c53338261181d565b50565b600042600d541115905090565b6000806002600084815260200190815260200160002060009054906101000a900473ffffffffffffffffffffffffffffffffffffffff169050600073ffffffffffffffffffffffffffffffffffffffff168173ffffffffffffffffffffffffffffffffffffffff161415610d0c576040517f08c379a0000000000000000000000000000000000000000000000000000000008152600401610d0390612d04565b60405180910390fd5b80915050919050565b60008073ffffffffffffffffffffffffffffffffffffffff168273ffffffffffffffffffffffffffffffffffffffff161415610d86576040517f08c379a0000000000000000000000000000000000000000000000000000000008152600401610d7d90612ce4565b60405180910390fd5b600360008373ffffffffffffffffffffffffffffffffffffffff1673ffffffffffffffffffffffffffffffffffffffff168152602001908152602001600020549050919050565b610dd56113f6565b73ffffffffffffffffffffffffffffffffffffffff16610df3610e55565b73ffffffffffffffffffffffffffffffffffffffff1614610e49576040517f08c379a0000000000000000000000000000000000000000000000000000000008152600401610e4090612d64565b60405180910390fd5b610e536000611915565b565b6000600b60009054906101000a900473ffffffffffffffffffffffffffffffffffffffff16905090565b610e876113f6565b73ffffffffffffffffffffffffffffffffffffffff16610ea5610e55565b73ffffffffffffffffffffffffffffffffffffffff1614610efb576040517f08c379a0000000000000000000000000000000000000000000000000000000008152600401610ef290612d64565b60405180910390fd5b80600c9080519060200190610f11929190612204565b5050565b606060018054610f249061308c565b80601f0160208091040260200160405190810160405280929190818152602001828054610f509061308c565b8015610f9d5780601f10610f7257610100808354040283529160200191610f9d565b820191906000526020600020905b815481529060010190602001808311610f8057829003601f168201915b5050505050905090565b6000610fb360076119db565b905090565b610fca610fc36113f6565b83836119e9565b5050565b6000600d54905090565b610fe9610fe36113f6565b836114b7565b611028576040517f08c379a000000000000000000000000000000000000000000000000000000000815260040161101f90612e04565b60405180910390fd5b61103484848484611b56565b50505050565b60606110458261138a565b611084576040517f08c379a000000000000000000000000000000000000000000000000000000000815260040161107b90612da4565b60405180910390fd5b600061108e611bb2565b905060008151116110ae57604051806020016040528060008152506110d9565b806110b884611bc9565b6040516020016110c9929190612ae1565b6040516020818303038152906040525b915050919050565b60006110eb610fa7565b6110f3610908565b6110fd9190612f90565b905090565b6060600c80546111119061308c565b80601f016020809104026020016040519081016040528092919081815260200182805461113d9061308c565b801561118a5780601f1061115f5761010080835404028352916020019161118a565b820191906000526020600020905b81548152906001019060200180831161116d57829003601f168201915b5050505050905090565b6000600560008473ffffffffffffffffffffffffffffffffffffffff1673ffffffffffffffffffffffffffffffffffffffff16815260200190815260200160002060008373ffffffffffffffffffffffffffffffffffffffff1673ffffffffffffffffffffffffffffffffffffffff16815260200190815260200160002060009054906101000a900460ff16905092915050565b6112306113f6565b73ffffffffffffffffffffffffffffffffffffffff1661124e610e55565b73ffffffffffffffffffffffffffffffffffffffff16146112a4576040517f08c379a000000000000000000000000000000000000000000000000000000000815260040161129b90612d64565b60405180910390fd5b600073ffffffffffffffffffffffffffffffffffffffff168173ffffffffffffffffffffffffffffffffffffffff161415611314576040517f08c379a000000000000000000000000000000000000000000000000000000000815260040161130b90612c04565b60405180910390fd5b61131d81611915565b50565b60007f01ffc9a7000000000000000000000000000000000000000000000000000000007bffffffffffffffffffffffffffffffffffffffffffffffffffffffff1916827bffffffffffffffffffffffffffffffffffffffffffffffffffffffff1916149050919050565b60008073ffffffffffffffffffffffffffffffffffffffff166002600084815260200190815260200160002060009054906101000a900473ffffffffffffffffffffffffffffffffffffffff1673ffffffffffffffffffffffffffffffffffffffff1614159050919050565b600033905090565b816004600083815260200190815260200160002060006101000a81548173ffffffffffffffffffffffffffffffffffffffff021916908373ffffffffffffffffffffffffffffffffffffffff160217905550808273ffffffffffffffffffffffffffffffffffffffff1661147183610c63565b73ffffffffffffffffffffffffffffffffffffffff167f8c5be1e5ebec7d5bd14f71427d1e84f3dd0314c0f7b2291e5b200ac8c7c3b92560405160405180910390a45050565b60006114c28261138a565b611501576040517f08c379a00000000000000000000000000000000000000000000000000000000081526004016114f890612ca4565b60405180910390fd5b600061150c83610c63565b90508073ffffffffffffffffffffffffffffffffffffffff168473ffffffffffffffffffffffffffffffffffffffff16148061154e575061154d8185611194565b5b8061158c57508373ffffffffffffffffffffffffffffffffffffffff166115748461076b565b73ffffffffffffffffffffffffffffffffffffffff16145b91505092915050565b81600173__$67561bb6553bfd8119bd0e37a2b0806095$__638da5cc14836040518263ffffffff1660e01b81526004016115cf9190612b05565b60206040518083038186803b1580156115e757600080fd5b505af41580156115fb573d6000803e3d6000fd5b505050506040513d601f19601f8201168201806040525081019061161f91906125c8565b1561167d576006548161163184610d15565b61163b9190612f09565b111561167c576040517f08c379a000000000000000000000000000000000000000000000000000000000815260040161167390612be4565b60405180910390fd5b5b611688858585611d2a565b5050505050565b60008061169a6110e1565b116116da576040517f08c379a00000000000000000000000000000000000000000000000000000000081526004016116d190612c84565b60405180910390fd5b60006116e4610fa7565b6116ec610908565b6116f69190612f90565b90506000813341444542604051602001611714959493929190612a82565b6040516020818303038152906040528051906020012060001c6117379190613178565b90506000806009600084815260200190815260200160002054141561175e57819050611775565b600960008381526020019081526020016000205490505b6000600960006001866117889190612f90565b81526020019081526020016000205414156117c6576001836117aa9190612f90565b60096000848152602001908152602001600020819055506117fe565b600960006001856117d79190612f90565b81526020019081526020016000205460096000848152602001908152602001600020819055505b611806611f91565b50600a54816118159190612f09565b935050505090565b81600173__$67561bb6553bfd8119bd0e37a2b0806095$__638da5cc14836040518263ffffffff1660e01b81526004016118579190612b05565b60206040518083038186803b15801561186f57600080fd5b505af4158015611883573d6000803e3d6000fd5b505050506040513d601f19601f820116820180604052508101906118a791906125c8565b1561190557600654816118b984610d15565b6118c39190612f09565b1115611904576040517f08c379a00000000000000000000000000000000000000000000000000000000081526004016118fb90612be4565b60405180910390fd5b5b61190f8484611fb1565b50505050565b6000600b60009054906101000a900473ffffffffffffffffffffffffffffffffffffffff16905081600b60006101000a81548173ffffffffffffffffffffffffffffffffffffffff021916908373ffffffffffffffffffffffffffffffffffffffff1602179055508173ffffffffffffffffffffffffffffffffffffffff168173ffffffffffffffffffffffffffffffffffffffff167f8be0079c531659141344cd1fd0a4f28419497f9722a3daafe3b4186f6b6457e060405160405180910390a35050565b600081600001549050919050565b8173ffffffffffffffffffffffffffffffffffffffff168373ffffffffffffffffffffffffffffffffffffffff161415611a58576040517f08c379a0000000000000000000000000000000000000000000000000000000008152600401611a4f90612c64565b60405180910390fd5b80600560008573ffffffffffffffffffffffffffffffffffffffff1673ffffffffffffffffffffffffffffffffffffffff16815260200190815260200160002060008473ffffffffffffffffffffffffffffffffffffffff1673ffffffffffffffffffffffffffffffffffffffff16815260200190815260200160002060006101000a81548160ff0219169083151502179055508173ffffffffffffffffffffffffffffffffffffffff168373ffffffffffffffffffffffffffffffffffffffff167f17307eab39ab6107e8899845ad3d59bd9653f200f220920489ca2b5937696c3183604051611b499190612b87565b60405180910390a3505050565b611b61848484611595565b611b6d84848484611fcf565b611bac576040517f08c379a0000000000000000000000000000000000000000000000000000000008152600401611ba390612bc4565b60405180910390fd5b50505050565b606060405180602001604052806000815250905090565b60606000821415611c11576040518060400160405280600181526020017f30000000000000000000000000000000000000000000000000000000000000008152509050611d25565b600082905060005b60008214611c43578080611c2c906130ef565b915050600a82611c3c9190612f5f565b9150611c19565b60008167ffffffffffffffff811115611c5f57611c5e613265565b5b6040519080825280601f01601f191660200182016040528015611c915781602001600182028036833780820191505090505b5090505b60008514611d1e57600182611caa9190612f90565b9150600a85611cb99190613178565b6030611cc59190612f09565b60f81b818381518110611cdb57611cda613236565b5b60200101907effffffffffffffffffffffffffffffffffffffffffffffffffffffffffffff1916908160001a905350600a85611d179190612f5f565b9450611c95565b8093505050505b919050565b8273ffffffffffffffffffffffffffffffffffffffff16611d4a82610c63565b73ffffffffffffffffffffffffffffffffffffffff1614611da0576040517f08c379a0000000000000000000000000000000000000000000000000000000008152600401611d9790612c24565b60405180910390fd5b600073ffffffffffffffffffffffffffffffffffffffff168273ffffffffffffffffffffffffffffffffffffffff161415611e10576040517f08c379a0000000000000000000000000000000000000000000000000000000008152600401611e0790612c44565b60405180910390fd5b611e1b838383612166565b611e266000826113fe565b6001600360008573ffffffffffffffffffffffffffffffffffffffff1673ffffffffffffffffffffffffffffffffffffffff1681526020019081526020016000206000828254611e769190612f90565b925050819055506001600360008473ffffffffffffffffffffffffffffffffffffffff1673ffffffffffffffffffffffffffffffffffffffff1681526020019081526020016000206000828254611ecd9190612f09565b92505081905550816002600083815260200190815260200160002060006101000a81548173ffffffffffffffffffffffffffffffffffffffff021916908373ffffffffffffffffffffffffffffffffffffffff160217905550808273ffffffffffffffffffffffffffffffffffffffff168473ffffffffffffffffffffffffffffffffffffffff167fddf252ad1be2c89b69c2b068fc378daa952ba7f163c4a11628f55a4df523b3ef60405160405180910390a4611f8c83838361216b565b505050565b600080611f9e60076119db565b9050611faa6007612170565b8091505090565b611fcb828260405180602001604052806000815250612186565b5050565b6000611ff08473ffffffffffffffffffffffffffffffffffffffff166121e1565b15612159578373ffffffffffffffffffffffffffffffffffffffff1663150b7a026120196113f6565b8786866040518563ffffffff1660e01b815260040161203b9493929190612b3b565b602060405180830381600087803b15801561205557600080fd5b505af192505050801561208657506040513d601f19601f820116820180604052508101906120839190612622565b60015b612109573d80600081146120b6576040519150601f19603f3d011682016040523d82523d6000602084013e6120bb565b606091505b50600081511415612101576040517f08c379a00000000000000000000000000000000000000000000000000000000081526004016120f890612bc4565b60405180910390fd5b805181602001fd5b63150b7a0260e01b7bffffffffffffffffffffffffffffffffffffffffffffffffffffffff1916817bffffffffffffffffffffffffffffffffffffffffffffffffffffffff19161491505061215e565b600190505b949350505050565b505050565b505050565b6001816000016000828254019250508190555050565b612190838361181d565b61219d6000848484611fcf565b6121dc576040517f08c379a00000000000000000000000000000000000000000000000000000000081526004016121d390612bc4565b60405180910390fd5b505050565b6000808273ffffffffffffffffffffffffffffffffffffffff163b119050919050565b8280546122109061308c565b90600052602060002090601f0160209004810192826122325760008555612279565b82601f1061224b57805160ff1916838001178555612279565b82800160010185558215612279579182015b8281111561227857825182559160200191906001019061225d565b5b509050612286919061228a565b5090565b5b808211156122a357600081600090555060010161228b565b5090565b60006122ba6122b584612e64565b612e3f565b9050828152602081018484840111156122d6576122d5613299565b5b6122e184828561304a565b509392505050565b60006122fc6122f784612e95565b612e3f565b90508281526020810184848401111561231857612317613299565b5b61232384828561304a565b509392505050565b60008135905061233a816137bf565b92915050565b60008135905061234f816137d6565b92915050565b600081519050612364816137d6565b92915050565b600081359050612379816137ed565b92915050565b60008151905061238e816137ed565b92915050565b600082601f8301126123a9576123a8613294565b5b81356123b98482602086016122a7565b91505092915050565b600082601f8301126123d7576123d6613294565b5b81356123e78482602086016122e9565b91505092915050565b6000813590506123ff81613804565b92915050565b60006020828403121561241b5761241a6132a3565b5b60006124298482850161232b565b91505092915050565b60008060408385031215612449576124486132a3565b5b60006124578582860161232b565b92505060206124688582860161232b565b9150509250929050565b60008060006060848603121561248b5761248a6132a3565b5b60006124998682870161232b565b93505060206124aa8682870161232b565b92505060406124bb868287016123f0565b9150509250925092565b600080600080608085870312156124df576124de6132a3565b5b60006124ed8782880161232b565b94505060206124fe8782880161232b565b935050604061250f878288016123f0565b925050606085013567ffffffffffffffff8111156125305761252f61329e565b5b61253c87828801612394565b91505092959194509250565b6000806040838503121561255f5761255e6132a3565b5b600061256d8582860161232b565b925050602061257e85828601612340565b9150509250929050565b6000806040838503121561259f5761259e6132a3565b5b60006125ad8582860161232b565b92505060206125be858286016123f0565b9150509250929050565b6000602082840312156125de576125dd6132a3565b5b60006125ec84828501612355565b91505092915050565b60006020828403121561260b5761260a6132a3565b5b60006126198482850161236a565b91505092915050565b600060208284031215612638576126376132a3565b5b60006126468482850161237f565b91505092915050565b600060208284031215612665576126646132a3565b5b600082013567ffffffffffffffff8111156126835761268261329e565b5b61268f848285016123c2565b91505092915050565b6000602082840312156126ae576126ad6132a3565b5b60006126bc848285016123f0565b91505092915050565b6126d66126d182612fd6565b61314a565b82525050565b6126e581612fc4565b82525050565b6126f481612fc4565b82525050565b61270b61270682612fc4565b613138565b82525050565b61271a81612fe8565b82525050565b600061272b82612ec6565b6127358185612edc565b9350612745818560208601613059565b61274e816132a8565b840191505092915050565b600061276482612ed1565b61276e8185612eed565b935061277e818560208601613059565b612787816132a8565b840191505092915050565b600061279d82612ed1565b6127a78185612efe565b93506127b7818560208601613059565b80840191505092915050565b60006127d0603283612eed565b91506127db826132c6565b604082019050919050565b60006127f3601d83612eed565b91506127fe82613315565b602082019050919050565b6000612816602683612eed565b91506128218261333e565b604082019050919050565b6000612839602583612eed565b91506128448261338d565b604082019050919050565b600061285c602483612eed565b9150612867826133dc565b604082019050919050565b600061287f601983612eed565b915061288a8261342b565b602082019050919050565b60006128a2601883612eed565b91506128ad82613454565b602082019050919050565b60006128c5602c83612eed565b91506128d08261347d565b604082019050919050565b60006128e8603883612eed565b91506128f3826134cc565b604082019050919050565b600061290b602a83612eed565b91506129168261351b565b604082019050919050565b600061292e602983612eed565b91506129398261356a565b604082019050919050565b6000612951601883612eed565b915061295c826135b9565b602082019050919050565b6000612974602c83612eed565b915061297f826135e2565b604082019050919050565b6000612997602083612eed565b91506129a282613631565b602082019050919050565b60006129ba603b83612eed565b91506129c58261365a565b604082019050919050565b60006129dd602f83612eed565b91506129e8826136a9565b604082019050919050565b6000612a00601783612eed565b9150612a0b826136f8565b602082019050919050565b6000612a23602183612eed565b9150612a2e82613721565b604082019050919050565b6000612a46603183612eed565b9150612a5182613770565b604082019050919050565b612a6581613040565b82525050565b612a7c612a7782613040565b61316e565b82525050565b6000612a8e82886126fa565b601482019150612a9e82876126c5565b601482019150612aae8286612a6b565b602082019150612abe8285612a6b565b602082019150612ace8284612a6b565b6020820191508190509695505050505050565b6000612aed8285612792565b9150612af98284612792565b91508190509392505050565b6000602082019050612b1a60008301846126eb565b92915050565b6000602082019050612b3560008301846126dc565b92915050565b6000608082019050612b5060008301876126dc565b612b5d60208301866126dc565b612b6a6040830185612a5c565b8181036060830152612b7c8184612720565b905095945050505050565b6000602082019050612b9c6000830184612711565b92915050565b60006020820190508181036000830152612bbc8184612759565b905092915050565b60006020820190508181036000830152612bdd816127c3565b9050919050565b60006020820190508181036000830152612bfd816127e6565b9050919050565b60006020820190508181036000830152612c1d81612809565b9050919050565b60006020820190508181036000830152612c3d8161282c565b9050919050565b60006020820190508181036000830152612c5d8161284f565b9050919050565b60006020820190508181036000830152612c7d81612872565b9050919050565b60006020820190508181036000830152612c9d81612895565b9050919050565b60006020820190508181036000830152612cbd816128b8565b9050919050565b60006020820190508181036000830152612cdd816128db565b9050919050565b60006020820190508181036000830152612cfd816128fe565b9050919050565b60006020820190508181036000830152612d1d81612921565b9050919050565b60006020820190508181036000830152612d3d81612944565b9050919050565b60006020820190508181036000830152612d5d81612967565b9050919050565b60006020820190508181036000830152612d7d8161298a565b9050919050565b60006020820190508181036000830152612d9d816129ad565b9050919050565b60006020820190508181036000830152612dbd816129d0565b9050919050565b60006020820190508181036000830152612ddd816129f3565b9050919050565b60006020820190508181036000830152612dfd81612a16565b9050919050565b60006020820190508181036000830152612e1d81612a39565b9050919050565b6000602082019050612e396000830184612a5c565b92915050565b6000612e49612e5a565b9050612e5582826130be565b919050565b6000604051905090565b600067ffffffffffffffff821115612e7f57612e7e613265565b5b612e88826132a8565b9050602081019050919050565b600067ffffffffffffffff821115612eb057612eaf613265565b5b612eb9826132a8565b9050602081019050919050565b600081519050919050565b600081519050919050565b600082825260208201905092915050565b600082825260208201905092915050565b600081905092915050565b6000612f1482613040565b9150612f1f83613040565b9250827fffffffffffffffffffffffffffffffffffffffffffffffffffffffffffffffff03821115612f5457612f536131a9565b5b828201905092915050565b6000612f6a82613040565b9150612f7583613040565b925082612f8557612f846131d8565b5b828204905092915050565b6000612f9b82613040565b9150612fa683613040565b925082821015612fb957612fb86131a9565b5b828203905092915050565b6000612fcf82613020565b9050919050565b6000612fe182613020565b9050919050565b60008115159050919050565b60007fffffffff0000000000000000000000000000000000000000000000000000000082169050919050565b600073ffffffffffffffffffffffffffffffffffffffff82169050919050565b6000819050919050565b82818337600083830152505050565b60005b8381101561307757808201518184015260208101905061305c565b83811115613086576000848401525b50505050565b600060028204905060018216806130a457607f821691505b602082108114156130b8576130b7613207565b5b50919050565b6130c7826132a8565b810181811067ffffffffffffffff821117156130e6576130e5613265565b5b80604052505050565b60006130fa82613040565b91507fffffffffffffffffffffffffffffffffffffffffffffffffffffffffffffffff82141561312d5761312c6131a9565b5b600182019050919050565b60006131438261315c565b9050919050565b60006131558261315c565b9050919050565b6000613167826132b9565b9050919050565b6000819050919050565b600061318382613040565b915061318e83613040565b92508261319e5761319d6131d8565b5b828206905092915050565b7f4e487b7100000000000000000000000000000000000000000000000000000000600052601160045260246000fd5b7f4e487b7100000000000000000000000000000000000000000000000000000000600052601260045260246000fd5b7f4e487b7100000000000000000000000000000000000000000000000000000000600052602260045260246000fd5b7f4e487b7100000000000000000000000000000000000000000000000000000000600052603260045260246000fd5b7f4e487b7100000000000000000000000000000000000000000000000000000000600052604160045260246000fd5b600080fd5b600080fd5b600080fd5b600080fd5b6000601f19601f8301169050919050565b60008160601b9050919050565b7f4552433732313a207472616e7366657220746f206e6f6e20455243373231526560008201527f63656976657220696d706c656d656e7465720000000000000000000000000000602082015250565b7f41626f76652074686520616c6c6f77656420746f6b656e20636f756e74000000600082015250565b7f4f776e61626c653a206e6577206f776e657220697320746865207a65726f206160008201527f6464726573730000000000000000000000000000000000000000000000000000602082015250565b7f4552433732313a207472616e736665722066726f6d20696e636f72726563742060008201527f6f776e6572000000000000000000000000000000000000000000000000000000602082015250565b7f4552433732313a207472616e7366657220746f20746865207a65726f2061646460008201527f7265737300000000000000000000000000000000000000000000000000000000602082015250565b7f4552433732313a20617070726f766520746f2063616c6c657200000000000000600082015250565b7f4e6f206d6f726520746f6b656e7320617661696c61626c650000000000000000600082015250565b7f4552433732313a206f70657261746f7220717565727920666f72206e6f6e657860008201527f697374656e7420746f6b656e0000000000000000000000000000000000000000602082015250565b7f4552433732313a20617070726f76652063616c6c6572206973206e6f74206f7760008201527f6e6572206e6f7220617070726f76656420666f7220616c6c0000000000000000602082015250565b7f4552433732313a2062616c616e636520717565727920666f7220746865207a6560008201527f726f206164647265737300000000000000000000000000000000000000000000602082015250565b7f4552433732313a206f776e657220717565727920666f72206e6f6e657869737460008201527f656e7420746f6b656e0000000000000000000000000000000000000000000000602082015250565b7f53616c652068617320616c726561647920737461727465640000000000000000600082015250565b7f4552433732313a20617070726f76656420717565727920666f72206e6f6e657860008201527f697374656e7420746f6b656e0000000000000000000000000000000000000000602082015250565b7f4f776e61626c653a2063616c6c6572206973206e6f7420746865206f776e6572600082015250565b7f4e6563657369746173207061676172206578616374656d656e746520302e303160008201527f207061726120686163657220656c206d696e742064656c204e46540000000000602082015250565b7f4552433732314d657461646174613a2055524920717565727920666f72206e6f60008201527f6e6578697374656e7420746f6b656e0000000000000000000000000000000000602082015250565b7f53616c65206861736e2774207374617274656420796574000000000000000000600082015250565b7f4552433732313a20617070726f76616c20746f2063757272656e74206f776e6560008201527f7200000000000000000000000000000000000000000000000000000000000000602082015250565b7f4552433732313a207472616e736665722063616c6c6572206973206e6f74206f60008201527f776e6572206e6f7220617070726f766564000000000000000000000000000000602082015250565b6137c881612fc4565b81146137d357600080fd5b50565b6137df81612fe8565b81146137ea57600080fd5b50565b6137f681612ff4565b811461380157600080fd5b50565b61380d81613040565b811461381857600080fd5b5056fea2646970667358221220f49391fa6b2aa2de84098f67610601efdd3f96a117bd6df5098aba522f98acc364736f6c63430008070033",
  "linkReferences": {
    "@1001-digital/check-address/contracts/CheckAddress.sol": {
      "CheckAddress": [
        {
          "length": 20,
          "start": 6849
        },
        {
          "length": 20,
          "start": 7497
        }
      ]
    }
  },
  "deployedLinkReferences": {
    "@1001-digital/check-address/contracts/CheckAddress.sol": {
      "CheckAddress": [
        {
          "length": 20,
          "start": 5530
        },
        {
          "length": 20,
          "start": 6178
        }
      ]
    }
  }
}