{
  "_format": "hh-sol-artifact-1",
  "contractName": "CheckAddress",
  "sourceName": "@1001-digital/check-address/contracts/CheckAddress.sol",
  "abi": [
    {
      "inputs": [
        {
          "internalType": "address",
          "name": "account",
          "type": "address"
        }
      ],
      "name": "isContract",
      "outputs": [
        {
          "internalType": "bool",
          "name": "",
          "type": "bool"
        }
      ],
      "stateMutability": "view",
      "type": "function"
    },
    {
      "inputs": [
        {
          "internalType": "address",
          "name": "account",
          "type": "address"
        }
      ],
      "name": "isExternal",
      "outputs": [
        {
          "internalType": "bool",
          "name": "",
          "type": "bool"
        }
      ],
      "stateMutability": "view",
      "type": "function"
    }
  ],
  "bytecode": "0x6101d9610053600b82828239805160001a607314610046577f4e487b7100000000000000000000000000000000000000000000000000000000600052600060045260246000fd5b30600052607381538281f3fe73000000000000000000000000000000000000000030146080604052600436106100405760003560e01c806316279055146100455780638da5cc1414610075575b600080fd5b61005f600480360381019061005a91906100f2565b6100a5565b60405161006c919061012e565b60405180910390f35b61008f600480360381019061008a91906100f2565b6100b9565b60405161009c919061012e565b60405180910390f35b6000806100b1836100cd565b119050919050565b6000806100c5836100cd565b149050919050565b600080823b905080915050919050565b6000813590506100ec8161018c565b92915050565b60006020828403121561010857610107610187565b5b6000610116848285016100dd565b91505092915050565b6101288161015b565b82525050565b6000602082019050610143600083018461011f565b92915050565b600061015482610167565b9050919050565b60008115159050919050565b600073ffffffffffffffffffffffffffffffffffffffff82169050919050565b600080fd5b61019581610149565b81146101a057600080fd5b5056fea2646970667358221220be4dcf1441c812461aa804183d798c44723451da6fd8a4cc253ea6cb969c4c0b64736f6c63430008070033",
  "linkReferences": {},
  "deployedLinkReferences": {}
}